:100000003EC0E3C155C054C053C052C051C050C0DF
:100010004FC04EC04DC04CC04BC04AC049C048C084
:1000200047C046C045C00403090410034E006500E4
:100030007500540072006F004E0014033900330045
:10004000430058005800500072006F0067000C0316
:1000500031003000310031003A0012011001FF0080
:100060000008C016557700010102030109021200C1
:10007000010100803209040000000000000011248A
:100080001FBECFEDCDBF10E0A0E6B0E0EAE3F7E0A1
:1000900002C005900D92A236B107D9F710E0A2E692
:1000A000B0E001C01D92A439B107E1F702D043C30B
:1000B000A7CFC4D22EE088E190E00FB6F894A895BF
:1000C00081BD0FBE21BD6CD08B9A20E040E757E187
:1000D000A895CA010197F1F72F5F2F3FC9F78B98B9
:1000E0007894A89564D0FDCFCF93DF93EC018981FC
:1000F000823089F0833038F4882309F44CC0813091
:1001000009F04AC045C0843049F18430D8F08530C8
:1001100009F042C034C08C81809365006A8160938D
:100120006200ADD280936300909364009093660068
:100130008093670086E690E0909379008093780042
:1001400082E02BC0B7D28C81809365006A817B816D
:100150007093640060936300D1D21EC08C81809341
:1001600065006A816093620078D28093680088E6B7
:1001700090E0909379008093780081E00EC09AD24D
:100180008C81809365006A81609368009FD204C06F
:10019000B89AC09A01C0C09880E0DF91CF910895CD
:1001A00085B7826085BF8BB780648BBF08951F932E
:1001B000CF93DF9390917A00935097FD92C0209156
:1001C0007700809176008D3209F089C0983009F06F
:1001D00086C0CCE0D0E0C21BD109C258DF4F83EC0F
:1001E00080936A008AE5809360001092690088819C
:1001F000807621F0CE0178DF282F68C09A81109296
:1002000073008981882321F41092740022E058C081
:10021000853019F490937B0052C0863009F040C0BD
:100220008B81813019F48AE590E004C0823041F47A
:100230008CE690E0909379008093780022E12CC0C6
:10024000833049F58A81882341F486E290E09093D7
:1002500079008093780024E01FC0813041F48AE265
:1002600090E0909379008093780020E115C082306F
:1002700041F48AE390E0909379008093780024E140
:100280000BC0833041F48EE490E09093790080932A
:1002900078002CE001C020E080E48093690016C063
:1002A000883021F421E08DE790E00CC0893019F40A
:1002B00090937D0004C08A3011F421E001C020E059
:1002C00083E790E090937900809378008F81882372
:1002D00021F48E81821708F4282F20936100109258
:1002E0007A008091600084FF49C0809161008F3F57
:1002F00009F444C0182F893008F018E0811B80935E
:10030000610080916A0098E8892780936A00112330
:1003100041F120917800309179008091690086FF49
:100320000DC0ABE6B0E080E090E0F901E80FF91F06
:10033000E491ED9301961817C1F708C0912FD901E8
:10034000EBE6F0E08D9181939150E1F71150812F10
:1003500090E01F5F0196820F931F90937900809326
:1003600078008BE690E0612F2CD0612F6C5F6C30B1
:1003700019F08FEF809361006093600094E180B387
:100380008C7031F49150D9F710927B001092750067
:10039000DF91CF911F910895A82FB92F80E090E0B1
:1003A00041E050EA609530E009C02D918227979591
:1003B000879510F084279527305EC8F36F5FA8F308
:1003C0000895EADF8D939D930895CF93CFB7CF9390
:1003D000C395839BE9F7839B09C0839B07C0839BDD
:1003E00005C0839B03C0839B01C0A1C0DF93C09164
:1003F0007700DD27C258DF4F839B02C0DF91EBCF30
:100400002F930F931F9300B32FEF03FB20F94F930C
:100410003F9310B34FEF012703FB21F93BE031C0BD
:100420004E7F012F10B3216028C0102F4D7F226016
:10043000000000B329C04B7F2460012F000010B3DF
:100440002BC010B3477F28602AC04F7E00B32061C5
:100450002CC04F7D10B320622FC04F7B00B32064AF
:1004600032C0422700B349934FEF0000102713FB1F
:1004700020F910B31C70C9F1297F91F2012703FB09
:1004800021F900B3237F89F2315058F1102713FB73
:1004900022F910B3277E79F2012703FB23F92F7C81
:1004A00081F200B3102713FB24F92F7971F200C0F9
:1004B00010B3012703FB25F92F7359F200C000B3D5
:1004C000102713FB26F9223040F200C010B3012799
:1004D00003FB27F9243028F64F77206810B300007B
:1004E000F9CF10E41ABF002717C03B503195C31B4A
:1004F000D04010E41ABF0881033CE9F00B34D9F076
:10050000209175001981110F1213EDCF093641F1B9
:100510000D3211F0013E39F700937C003F914F916D
:100520001F910F912F91DF91CAB7C6FD51CFCF9187
:10053000CFBFCF91189520917C00222379F31091A1
:100540007A00112311F5343012F130937A002093A0
:100550007600109177003BE0311B3093770017C095
:1005600000917A0001308CF40AE53091600034FD8E
:1005700010C000936000CAE6D0E00FC02795A8F431
:100580005150A9F4220F0000F9CF4AE503C042ED13
:1005900001C0432FC4E1D0E032E011B31C60939A54
:1005A00011BB02B320E41CE05F93012756E002BBBD
:1005B000279520F4515021F4220FF9CF012756E05E
:1005C00000003B5A02BBD0F2279528F4515029F481
:1005D000220F0000F9CF012756E0279502BB20F437
:1005E000515021F4220FF9CF012756E029913323EE
:1005F00002BB21F6037F10917B00110FC651D04042
:1006000002BB11F01093750010E41ABF086011B31B
:10061000137F402F437F5F9100C000C002BB11BB1E
:1006200042BB7CCF769A8FB92BE194E02DB9892F0C
:100630008A95F1F7769BFACF8FB1089580ED87BB4D
:1006400008958DB1817F8DB9689A84E0982F9A952D
:10065000F1F7689A8A95F1F708950F931F93182F71
:10066000062FC49A83E0DEDF812F8F77DBDF011155
:10067000E8DF8FEFD7DFC4981F910F9108950F9394
:100680001F93182F062FC49A81E0CCDF812F80683A
:10069000C9DF0111D6DF8FEFC5DF182F00E08FEF24
:1006A000C1DFC498282F30E0202B312BC9011F91C6
:1006B0000F910895C498C49A82E0B4DF80E6B2DF57
:1006C000C49880E395E70197F1F708950F931F937E
:1006D000182F062FC49A82E0A5DF812F8068A2DF41
:1006E000802FA0DFC498C49AB59BFECFC49880E346
:1006F00095E70197F1F71F910F910895FF920F93DE
:100700001F93182FF62E072FC49A81E08BDF812FBD
:10071000806488DF802F86DF8F2D84DFC498C49AA1
:10072000B59BFECFC49880E395E70197F1F71F9141
:0A0730000F91FF900895F894FFCF99
:02073A005AFF64
:00000001FF
